{
  "_format": "hh-sol-artifact-1",
  "contractName": "CryptoDevs",
  "sourceName": "contracts/CryptoDevs.sol",
  "abi": [
    {
      "inputs": [
        {
          "internalType": "string",
          "name": "baseURI",
          "type": "string"
        },
        {
          "internalType": "address",
          "name": "whitelistContract",
          "type": "address"
        }
      ],
      "stateMutability": "nonpayable",
      "type": "constructor"
    },
    {
      "anonymous": false,
      "inputs": [
        {
          "indexed": true,
          "internalType": "address",
          "name": "owner",
          "type": "address"
        },
        {
          "indexed": true,
          "internalType": "address",
          "name": "approved",
          "type": "address"
        },
        {
          "indexed": true,
          "internalType": "uint256",
          "name": "tokenId",
          "type": "uint256"
        }
      ],
      "name": "Approval",
      "type": "event"
    },
    {
      "anonymous": false,
      "inputs": [
        {
          "indexed": true,
          "internalType": "address",
          "name": "owner",
          "type": "address"
        },
        {
          "indexed": true,
          "internalType": "address",
          "name": "operator",
          "type": "address"
        },
        {
          "indexed": false,
          "internalType": "bool",
          "name": "approved",
          "type": "bool"
        }
      ],
      "name": "ApprovalForAll",
      "type": "event"
    },
    {
      "anonymous": false,
      "inputs": [
        {
          "indexed": true,
          "internalType": "address",
          "name": "previousOwner",
          "type": "address"
        },
        {
          "indexed": true,
          "internalType": "address",
          "name": "newOwner",
          "type": "address"
        }
      ],
      "name": "OwnershipTransferred",
      "type": "event"
    },
    {
      "anonymous": false,
      "inputs": [
        {
          "indexed": true,
          "internalType": "address",
          "name": "from",
          "type": "address"
        },
        {
          "indexed": true,
          "internalType": "address",
          "name": "to",
          "type": "address"
        },
        {
          "indexed": true,
          "internalType": "uint256",
          "name": "tokenId",
          "type": "uint256"
        }
      ],
      "name": "Transfer",
      "type": "event"
    },
    {
      "stateMutability": "payable",
      "type": "fallback"
    },
    {
      "inputs": [],
      "name": "_paused",
      "outputs": [
        {
          "internalType": "bool",
          "name": "",
          "type": "bool"
        }
      ],
      "stateMutability": "view",
      "type": "function"
    },
    {
      "inputs": [],
      "name": "_presalePrice",
      "outputs": [
        {
          "internalType": "uint256",
          "name": "",
          "type": "uint256"
        }
      ],
      "stateMutability": "view",
      "type": "function"
    },
    {
      "inputs": [],
      "name": "_publicPrice",
      "outputs": [
        {
          "internalType": "uint256",
          "name": "",
          "type": "uint256"
        }
      ],
      "stateMutability": "view",
      "type": "function"
    },
    {
      "inputs": [
        {
          "internalType": "address",
          "name": "to",
          "type": "address"
        },
        {
          "internalType": "uint256",
          "name": "tokenId",
          "type": "uint256"
        }
      ],
      "name": "approve",
      "outputs": [],
      "stateMutability": "nonpayable",
      "type": "function"
    },
    {
      "inputs": [
        {
          "internalType": "address",
          "name": "owner",
          "type": "address"
        }
      ],
      "name": "balanceOf",
      "outputs": [
        {
          "internalType": "uint256",
          "name": "",
          "type": "uint256"
        }
      ],
      "stateMutability": "view",
      "type": "function"
    },
    {
      "inputs": [
        {
          "internalType": "uint256",
          "name": "tokenId",
          "type": "uint256"
        }
      ],
      "name": "getApproved",
      "outputs": [
        {
          "internalType": "address",
          "name": "",
          "type": "address"
        }
      ],
      "stateMutability": "view",
      "type": "function"
    },
    {
      "inputs": [
        {
          "internalType": "address",
          "name": "owner",
          "type": "address"
        },
        {
          "internalType": "address",
          "name": "operator",
          "type": "address"
        }
      ],
      "name": "isApprovedForAll",
      "outputs": [
        {
          "internalType": "bool",
          "name": "",
          "type": "bool"
        }
      ],
      "stateMutability": "view",
      "type": "function"
    },
    {
      "inputs": [],
      "name": "maxTokenIds",
      "outputs": [
        {
          "internalType": "uint256",
          "name": "",
          "type": "uint256"
        }
      ],
      "stateMutability": "view",
      "type": "function"
    },
    {
      "inputs": [],
      "name": "mint",
      "outputs": [],
      "stateMutability": "payable",
      "type": "function"
    },
    {
      "inputs": [],
      "name": "name",
      "outputs": [
        {
          "internalType": "string",
          "name": "",
          "type": "string"
        }
      ],
      "stateMutability": "view",
      "type": "function"
    },
    {
      "inputs": [],
      "name": "owner",
      "outputs": [
        {
          "internalType": "address",
          "name": "",
          "type": "address"
        }
      ],
      "stateMutability": "view",
      "type": "function"
    },
    {
      "inputs": [
        {
          "internalType": "uint256",
          "name": "tokenId",
          "type": "uint256"
        }
      ],
      "name": "ownerOf",
      "outputs": [
        {
          "internalType": "address",
          "name": "",
          "type": "address"
        }
      ],
      "stateMutability": "view",
      "type": "function"
    },
    {
      "inputs": [],
      "name": "presaleEnded",
      "outputs": [
        {
          "internalType": "uint256",
          "name": "",
          "type": "uint256"
        }
      ],
      "stateMutability": "view",
      "type": "function"
    },
    {
      "inputs": [],
      "name": "presaleMint",
      "outputs": [],
      "stateMutability": "payable",
      "type": "function"
    },
    {
      "inputs": [],
      "name": "presaleStarted",
      "outputs": [
        {
          "internalType": "bool",
          "name": "",
          "type": "bool"
        }
      ],
      "stateMutability": "view",
      "type": "function"
    },
    {
      "inputs": [],
      "name": "renounceOwnership",
      "outputs": [],
      "stateMutability": "nonpayable",
      "type": "function"
    },
    {
      "inputs": [
        {
          "internalType": "address",
          "name": "from",
          "type": "address"
        },
        {
          "internalType": "address",
          "name": "to",
          "type": "address"
        },
        {
          "internalType": "uint256",
          "name": "tokenId",
          "type": "uint256"
        }
      ],
      "name": "safeTransferFrom",
      "outputs": [],
      "stateMutability": "nonpayable",
      "type": "function"
    },
    {
      "inputs": [
        {
          "internalType": "address",
          "name": "from",
          "type": "address"
        },
        {
          "internalType": "address",
          "name": "to",
          "type": "address"
        },
        {
          "internalType": "uint256",
          "name": "tokenId",
          "type": "uint256"
        },
        {
          "internalType": "bytes",
          "name": "data",
          "type": "bytes"
        }
      ],
      "name": "safeTransferFrom",
      "outputs": [],
      "stateMutability": "nonpayable",
      "type": "function"
    },
    {
      "inputs": [
        {
          "internalType": "address",
          "name": "operator",
          "type": "address"
        },
        {
          "internalType": "bool",
          "name": "approved",
          "type": "bool"
        }
      ],
      "name": "setApprovalForAll",
      "outputs": [],
      "stateMutability": "nonpayable",
      "type": "function"
    },
    {
      "inputs": [
        {
          "internalType": "bool",
          "name": "val",
          "type": "bool"
        }
      ],
      "name": "setPause",
      "outputs": [],
      "stateMutability": "nonpayable",
      "type": "function"
    },
    {
      "inputs": [],
      "name": "startPresale",
      "outputs": [],
      "stateMutability": "nonpayable",
      "type": "function"
    },
    {
      "inputs": [
        {
          "internalType": "bytes4",
          "name": "interfaceId",
          "type": "bytes4"
        }
      ],
      "name": "supportsInterface",
      "outputs": [
        {
          "internalType": "bool",
          "name": "",
          "type": "bool"
        }
      ],
      "stateMutability": "view",
      "type": "function"
    },
    {
      "inputs": [],
      "name": "symbol",
      "outputs": [
        {
          "internalType": "string",
          "name": "",
          "type": "string"
        }
      ],
      "stateMutability": "view",
      "type": "function"
    },
    {
      "inputs": [
        {
          "internalType": "uint256",
          "name": "index",
          "type": "uint256"
        }
      ],
      "name": "tokenByIndex",
      "outputs": [
        {
          "internalType": "uint256",
          "name": "",
          "type": "uint256"
        }
      ],
      "stateMutability": "view",
      "type": "function"
    },
    {
      "inputs": [],
      "name": "tokenIds",
      "outputs": [
        {
          "internalType": "uint256",
          "name": "",
          "type": "uint256"
        }
      ],
      "stateMutability": "view",
      "type": "function"
    },
    {
      "inputs": [
        {
          "internalType": "address",
          "name": "owner",
          "type": "address"
        },
        {
          "internalType": "uint256",
          "name": "index",
          "type": "uint256"
        }
      ],
      "name": "tokenOfOwnerByIndex",
      "outputs": [
        {
          "internalType": "uint256",
          "name": "",
          "type": "uint256"
        }
      ],
      "stateMutability": "view",
      "type": "function"
    },
    {
      "inputs": [
        {
          "internalType": "uint256",
          "name": "tokenId",
          "type": "uint256"
        }
      ],
      "name": "tokenURI",
      "outputs": [
        {
          "internalType": "string",
          "name": "",
          "type": "string"
        }
      ],
      "stateMutability": "view",
      "type": "function"
    },
    {
      "inputs": [],
      "name": "totalSupply",
      "outputs": [
        {
          "internalType": "uint256",
          "name": "",
          "type": "uint256"
        }
      ],
      "stateMutability": "view",
      "type": "function"
    },
    {
      "inputs": [
        {
          "internalType": "address",
          "name": "from",
          "type": "address"
        },
        {
          "internalType": "address",
          "name": "to",
          "type": "address"
        },
        {
          "internalType": "uint256",
          "name": "tokenId",
          "type": "uint256"
        }
      ],
      "name": "transferFrom",
      "outputs": [],
      "stateMutability": "nonpayable",
      "type": "function"
    },
    {
      "inputs": [
        {
          "internalType": "address",
          "name": "newOwner",
          "type": "address"
        }
      ],
      "name": "transferOwnership",
      "outputs": [],
      "stateMutability": "nonpayable",
      "type": "function"
    },
    {
      "inputs": [],
      "name": "withdraw",
      "outputs": [],
      "stateMutability": "nonpayable",
      "type": "function"
    },
    {
      "stateMutability": "payable",
      "type": "receive"
    }
  ],
  "bytecode": "0x60806040526014600e556611c37937e08000601055662386f26fc100006011553480156200002c57600080fd5b50604051620046be380380620046be833981810160405281019062000052919062000425565b6040518060400160405280600b81526020017f43727970746f20446576730000000000000000000000000000000000000000008152506040518060400160405280600281526020017f43440000000000000000000000000000000000000000000000000000000000008152508160009081620000cf9190620006d6565b508060019081620000e19190620006d6565b50505062000104620000f86200015f60201b60201c565b6200016760201b60201c565b81600b9081620001159190620006d6565b5080600c60006101000a81548173ffffffffffffffffffffffffffffffffffffffff021916908373ffffffffffffffffffffffffffffffffffffffff1602179055505050620007bd565b600033905090565b6000600a60009054906101000a900473ffffffffffffffffffffffffffffffffffffffff16905081600a60006101000a81548173ffffffffffffffffffffffffffffffffffffffff021916908373ffffffffffffffffffffffffffffffffffffffff1602179055508173ffffffffffffffffffffffffffffffffffffffff168173ffffffffffffffffffffffffffffffffffffffff167f8be0079c531659141344cd1fd0a4f28419497f9722a3daafe3b4186f6b6457e060405160405180910390a35050565b6000604051905090565b600080fd5b600080fd5b600080fd5b600080fd5b6000601f19601f8301169050919050565b7f4e487b7100000000000000000000000000000000000000000000000000000000600052604160045260246000fd5b62000296826200024b565b810181811067ffffffffffffffff82111715620002b857620002b76200025c565b5b80604052505050565b6000620002cd6200022d565b9050620002db82826200028b565b919050565b600067ffffffffffffffff821115620002fe57620002fd6200025c565b5b62000309826200024b565b9050602081019050919050565b60005b838110156200033657808201518184015260208101905062000319565b60008484015250505050565b6000620003596200035384620002e0565b620002c1565b90508281526020810184848401111562000378576200037762000246565b5b6200038584828562000316565b509392505050565b600082601f830112620003a557620003a462000241565b5b8151620003b784826020860162000342565b91505092915050565b600073ffffffffffffffffffffffffffffffffffffffff82169050919050565b6000620003ed82620003c0565b9050919050565b620003ff81620003e0565b81146200040b57600080fd5b50565b6000815190506200041f81620003f4565b92915050565b600080604083850312156200043f576200043e62000237565b5b600083015167ffffffffffffffff81111562000460576200045f6200023c565b5b6200046e858286016200038d565b925050602062000481858286016200040e565b9150509250929050565b600081519050919050565b7f4e487b7100000000000000000000000000000000000000000000000000000000600052602260045260246000fd5b60006002820490506001821680620004de57607f821691505b602082108103620004f457620004f362000496565b5b50919050565b60008190508160005260206000209050919050565b60006020601f8301049050919050565b600082821b905092915050565b6000600883026200055e7fffffffffffffffffffffffffffffffffffffffffffffffffffffffffffffffff826200051f565b6200056a86836200051f565b95508019841693508086168417925050509392505050565b6000819050919050565b6000819050919050565b6000620005b7620005b1620005ab8462000582565b6200058c565b62000582565b9050919050565b6000819050919050565b620005d38362000596565b620005eb620005e282620005be565b8484546200052c565b825550505050565b600090565b62000602620005f3565b6200060f818484620005c8565b505050565b5b8181101562000637576200062b600082620005f8565b60018101905062000615565b5050565b601f82111562000686576200065081620004fa565b6200065b846200050f565b810160208510156200066b578190505b620006836200067a856200050f565b83018262000614565b50505b505050565b600082821c905092915050565b6000620006ab600019846008026200068b565b1980831691505092915050565b6000620006c6838362000698565b9150826002028217905092915050565b620006e1826200048b565b67ffffffffffffffff811115620006fd57620006fc6200025c565b5b620007098254620004c5565b620007168282856200063b565b600060209050601f8311600181146200074e576000841562000739578287015190505b620007458582620006b8565b865550620007b5565b601f1984166200075e86620004fa565b60005b82811015620007885784890151825560018201915060208501945060208101905062000761565b86831015620007a85784890151620007a4601f89168262000698565b8355505b6001600288020188555050505b505050505050565b613ef180620007cd6000396000f3fe6080604052600436106101dc5760003560e01c80635f0d246a116101025780639888905811610095578063c87b56dd11610064578063c87b56dd14610650578063e580b2b01461068d578063e985e9c5146106b8578063f2fde38b146106f5576101e3565b806398889058146105aa578063a22cb465146105d5578063b88d4fde146105fe578063bedb86fb14610627576101e3565b8063714cff56116100d1578063714cff5614610512578063715018a61461053d5780638da5cb5b1461055457806395d89b411461057f576101e3565b80635f0d246a146104425780635f7696211461046d5780636352211e1461049857806370a08231146104d5576101e3565b806316c61ccc1161017a5780633ccfd60b116101495780633ccfd60b146103bb57806342842e0e146103d25780634f6ccce7146103fb57806359533d6c14610438576101e3565b806316c61ccc146102ff57806318160ddd1461032a57806323b872dd146103555780632f745c591461037e576101e3565b806306fdde03116101b657806306fdde0314610264578063081812fc1461028f578063095ea7b3146102cc5780631249c58b146102f5576101e3565b806301ffc9a7146101e557806304549d6f1461022257806304c98b2b1461024d576101e3565b366101e357005b005b3480156101f157600080fd5b5061020c60048036038101906102079190612a9b565b61071e565b6040516102199190612ae3565b60405180910390f35b34801561022e57600080fd5b50610237610798565b6040516102449190612ae3565b60405180910390f35b34801561025957600080fd5b506102626107ab565b005b34801561027057600080fd5b506102796107e4565b6040516102869190612b8e565b60405180910390f35b34801561029b57600080fd5b506102b660048036038101906102b19190612be6565b610876565b6040516102c39190612c54565b60405180910390f35b3480156102d857600080fd5b506102f360048036038101906102ee9190612c9b565b6108bc565b005b6102fd6109d3565b005b34801561030b57600080fd5b50610314610b33565b6040516103219190612ae3565b60405180910390f35b34801561033657600080fd5b5061033f610b46565b60405161034c9190612cea565b60405180910390f35b34801561036157600080fd5b5061037c60048036038101906103779190612d05565b610b53565b005b34801561038a57600080fd5b506103a560048036038101906103a09190612c9b565b610bb3565b6040516103b29190612cea565b60405180910390f35b3480156103c757600080fd5b506103d0610c58565b005b3480156103de57600080fd5b506103f960048036038101906103f49190612d05565b610d22565b005b34801561040757600080fd5b50610422600480360381019061041d9190612be6565b610d42565b60405161042f9190612cea565b60405180910390f35b610440610db3565b005b34801561044e57600080fd5b50610457610ff5565b6040516104649190612cea565b60405180910390f35b34801561047957600080fd5b50610482610ffb565b60405161048f9190612cea565b60405180910390f35b3480156104a457600080fd5b506104bf60048036038101906104ba9190612be6565b611001565b6040516104cc9190612c54565b60405180910390f35b3480156104e157600080fd5b506104fc60048036038101906104f79190612d58565b611087565b6040516105099190612cea565b60405180910390f35b34801561051e57600080fd5b5061052761113e565b6040516105349190612cea565b60405180910390f35b34801561054957600080fd5b50610552611144565b005b34801561056057600080fd5b50610569611158565b6040516105769190612c54565b60405180910390f35b34801561058b57600080fd5b50610594611182565b6040516105a19190612b8e565b60405180910390f35b3480156105b657600080fd5b506105bf611214565b6040516105cc9190612cea565b60405180910390f35b3480156105e157600080fd5b506105fc60048036038101906105f79190612db1565b61121a565b005b34801561060a57600080fd5b5061062560048036038101906106209190612f26565b611230565b005b34801561063357600080fd5b5061064e60048036038101906106499190612fa9565b611292565b005b34801561065c57600080fd5b5061067760048036038101906106729190612be6565b6112b7565b6040516106849190612b8e565b60405180910390f35b34801561069957600080fd5b506106a261131f565b6040516106af9190612cea565b60405180910390f35b3480156106c457600080fd5b506106df60048036038101906106da9190612fd6565b611325565b6040516106ec9190612ae3565b60405180910390f35b34801561070157600080fd5b5061071c60048036038101906107179190612d58565b6113b9565b005b60007f780e9d63000000000000000000000000000000000000000000000000000000007bffffffffffffffffffffffffffffffffffffffffffffffffffffffff1916827bffffffffffffffffffffffffffffffffffffffffffffffffffffffff1916148061079157506107908261143c565b5b9050919050565b600c60149054906101000a900460ff1681565b6107b361151e565b6001600c60146101000a81548160ff02191690831515021790555061012c426107dc9190613045565b600d81905550565b6060600080546107f3906130a8565b80601f016020809104026020016040519081016040528092919081815260200182805461081f906130a8565b801561086c5780601f106108415761010080835404028352916020019161086c565b820191906000526020600020905b81548152906001019060200180831161084f57829003601f168201915b5050505050905090565b60006108818261159c565b6004600083815260200190815260200160002060009054906101000a900473ffffffffffffffffffffffffffffffffffffffff169050919050565b60006108c782611001565b90508073ffffffffffffffffffffffffffffffffffffffff168373ffffffffffffffffffffffffffffffffffffffff1603610937576040517f08c379a000000000000000000000000000000000000000000000000000000000815260040161092e9061314b565b60405180910390fd5b8073ffffffffffffffffffffffffffffffffffffffff166109566115e7565b73ffffffffffffffffffffffffffffffffffffffff16148061098557506109848161097f6115e7565b611325565b5b6109c4576040517f08c379a00000000000000000000000000000000000000000000000000000000081526004016109bb906131dd565b60405180910390fd5b6109ce83836115ef565b505050565b601260009054906101000a900460ff1615610a23576040517f08c379a0000000000000000000000000000000000000000000000000000000008152600401610a1a90613249565b60405180910390fd5b600c60149054906101000a900460ff168015610a415750600d544210155b610a80576040517f08c379a0000000000000000000000000000000000000000000000000000000008152600401610a77906132b5565b60405180910390fd5b600e54600f5410610ac6576040517f08c379a0000000000000000000000000000000000000000000000000000000008152600401610abd90613321565b60405180910390fd5b601154341015610b0b576040517f08c379a0000000000000000000000000000000000000000000000000000000008152600401610b029061338d565b60405180910390fd5b6001600f6000828254610b1e9190613045565b92505081905550610b3133600f546116a8565b565b601260009054906101000a900460ff1681565b6000600880549050905090565b610b64610b5e6115e7565b826116c6565b610ba3576040517f08c379a0000000000000000000000000000000000000000000000000000000008152600401610b9a9061341f565b60405180910390fd5b610bae83838361175b565b505050565b6000610bbe83611087565b8210610bff576040517f08c379a0000000000000000000000000000000000000000000000000000000008152600401610bf6906134b1565b60405180910390fd5b600660008473ffffffffffffffffffffffffffffffffffffffff1673ffffffffffffffffffffffffffffffffffffffff168152602001908152602001600020600083815260200190815260200160002054905092915050565b610c6061151e565b6000610c6a611158565b9050600047905060008273ffffffffffffffffffffffffffffffffffffffff1682604051610c9790613502565b60006040518083038185875af1925050503d8060008114610cd4576040519150601f19603f3d011682016040523d82523d6000602084013e610cd9565b606091505b5050905080610d1d576040517f08c379a0000000000000000000000000000000000000000000000000000000008152600401610d1490613563565b60405180910390fd5b505050565b610d3d83838360405180602001604052806000815250611230565b505050565b6000610d4c610b46565b8210610d8d576040517f08c379a0000000000000000000000000000000000000000000000000000000008152600401610d84906135f5565b60405180910390fd5b60088281548110610da157610da0613615565b5b90600052602060002001549050919050565b610dbb61151e565b601260009054906101000a900460ff1615610e0b576040517f08c379a0000000000000000000000000000000000000000000000000000000008152600401610e0290613249565b60405180910390fd5b600c60149054906101000a900460ff168015610e285750600d5442105b610e67576040517f08c379a0000000000000000000000000000000000000000000000000000000008152600401610e5e90613690565b60405180910390fd5b600c60009054906101000a900473ffffffffffffffffffffffffffffffffffffffff1673ffffffffffffffffffffffffffffffffffffffff166306c933d8336040518263ffffffff1660e01b8152600401610ec29190612c54565b602060405180830381865afa158015610edf573d6000803e3d6000fd5b505050506040513d601f19601f82011682018060405250810190610f0391906136c5565b610f42576040517f08c379a0000000000000000000000000000000000000000000000000000000008152600401610f399061373e565b60405180910390fd5b600e54600f5410610f88576040517f08c379a0000000000000000000000000000000000000000000000000000000008152600401610f7f90613321565b60405180910390fd5b601054341015610fcd576040517f08c379a0000000000000000000000000000000000000000000000000000000008152600401610fc49061338d565b60405180910390fd5b6001600f6000828254610fe09190613045565b92505081905550610ff333600f546116a8565b565b60105481565b600e5481565b60008061100d83611a54565b9050600073ffffffffffffffffffffffffffffffffffffffff168173ffffffffffffffffffffffffffffffffffffffff160361107e576040517f08c379a0000000000000000000000000000000000000000000000000000000008152600401611075906137aa565b60405180910390fd5b80915050919050565b60008073ffffffffffffffffffffffffffffffffffffffff168273ffffffffffffffffffffffffffffffffffffffff16036110f7576040517f08c379a00000000000000000000000000000000000000000000000000000000081526004016110ee9061383c565b60405180910390fd5b600360008373ffffffffffffffffffffffffffffffffffffffff1673ffffffffffffffffffffffffffffffffffffffff168152602001908152602001600020549050919050565b600f5481565b61114c61151e565b6111566000611a91565b565b6000600a60009054906101000a900473ffffffffffffffffffffffffffffffffffffffff16905090565b606060018054611191906130a8565b80601f01602080910402602001604051908101604052809291908181526020018280546111bd906130a8565b801561120a5780601f106111df5761010080835404028352916020019161120a565b820191906000526020600020905b8154815290600101906020018083116111ed57829003601f168201915b5050505050905090565b60115481565b61122c6112256115e7565b8383611b57565b5050565b61124161123b6115e7565b836116c6565b611280576040517f08c379a00000000000000000000000000000000000000000000000000000000081526004016112779061341f565b60405180910390fd5b61128c84848484611cc3565b50505050565b61129a61151e565b80601260006101000a81548160ff02191690831515021790555050565b60606112c28261159c565b60006112cc611d1f565b905060008151116112ec5760405180602001604052806000815250611317565b806112f684611db1565b604051602001611307929190613898565b6040516020818303038152906040525b915050919050565b600d5481565b6000600560008473ffffffffffffffffffffffffffffffffffffffff1673ffffffffffffffffffffffffffffffffffffffff16815260200190815260200160002060008373ffffffffffffffffffffffffffffffffffffffff1673ffffffffffffffffffffffffffffffffffffffff16815260200190815260200160002060009054906101000a900460ff16905092915050565b6113c161151e565b600073ffffffffffffffffffffffffffffffffffffffff168173ffffffffffffffffffffffffffffffffffffffff1603611430576040517f08c379a00000000000000000000000000000000000000000000000000000000081526004016114279061392e565b60405180910390fd5b61143981611a91565b50565b60007f80ac58cd000000000000000000000000000000000000000000000000000000007bffffffffffffffffffffffffffffffffffffffffffffffffffffffff1916827bffffffffffffffffffffffffffffffffffffffffffffffffffffffff1916148061150757507f5b5e139f000000000000000000000000000000000000000000000000000000007bffffffffffffffffffffffffffffffffffffffffffffffffffffffff1916827bffffffffffffffffffffffffffffffffffffffffffffffffffffffff1916145b80611517575061151682611e7f565b5b9050919050565b6115266115e7565b73ffffffffffffffffffffffffffffffffffffffff16611544611158565b73ffffffffffffffffffffffffffffffffffffffff161461159a576040517f08c379a00000000000000000000000000000000000000000000000000000000081526004016115919061399a565b60405180910390fd5b565b6115a581611ee9565b6115e4576040517f08c379a00000000000000000000000000000000000000000000000000000000081526004016115db906137aa565b60405180910390fd5b50565b600033905090565b816004600083815260200190815260200160002060006101000a81548173ffffffffffffffffffffffffffffffffffffffff021916908373ffffffffffffffffffffffffffffffffffffffff160217905550808273ffffffffffffffffffffffffffffffffffffffff1661166283611001565b73ffffffffffffffffffffffffffffffffffffffff167f8c5be1e5ebec7d5bd14f71427d1e84f3dd0314c0f7b2291e5b200ac8c7c3b92560405160405180910390a45050565b6116c2828260405180602001604052806000815250611f2a565b5050565b6000806116d283611001565b90508073ffffffffffffffffffffffffffffffffffffffff168473ffffffffffffffffffffffffffffffffffffffff16148061171457506117138185611325565b5b8061175257508373ffffffffffffffffffffffffffffffffffffffff1661173a84610876565b73ffffffffffffffffffffffffffffffffffffffff16145b91505092915050565b8273ffffffffffffffffffffffffffffffffffffffff1661177b82611001565b73ffffffffffffffffffffffffffffffffffffffff16146117d1576040517f08c379a00000000000000000000000000000000000000000000000000000000081526004016117c890613a2c565b60405180910390fd5b600073ffffffffffffffffffffffffffffffffffffffff168273ffffffffffffffffffffffffffffffffffffffff1603611840576040517f08c379a000000000000000000000000000000000000000000000000000000000815260040161183790613abe565b60405180910390fd5b61184d8383836001611f85565b8273ffffffffffffffffffffffffffffffffffffffff1661186d82611001565b73ffffffffffffffffffffffffffffffffffffffff16146118c3576040517f08c379a00000000000000000000000000000000000000000000000000000000081526004016118ba90613a2c565b60405180910390fd5b6004600082815260200190815260200160002060006101000a81549073ffffffffffffffffffffffffffffffffffffffff02191690556001600360008573ffffffffffffffffffffffffffffffffffffffff1673ffffffffffffffffffffffffffffffffffffffff168152602001908152602001600020600082825403925050819055506001600360008473ffffffffffffffffffffffffffffffffffffffff1673ffffffffffffffffffffffffffffffffffffffff16815260200190815260200160002060008282540192505081905550816002600083815260200190815260200160002060006101000a81548173ffffffffffffffffffffffffffffffffffffffff021916908373ffffffffffffffffffffffffffffffffffffffff160217905550808273ffffffffffffffffffffffffffffffffffffffff168473ffffffffffffffffffffffffffffffffffffffff167fddf252ad1be2c89b69c2b068fc378daa952ba7f163c4a11628f55a4df523b3ef60405160405180910390a4611a4f83838360016120e3565b505050565b60006002600083815260200190815260200160002060009054906101000a900473ffffffffffffffffffffffffffffffffffffffff169050919050565b6000600a60009054906101000a900473ffffffffffffffffffffffffffffffffffffffff16905081600a60006101000a81548173ffffffffffffffffffffffffffffffffffffffff021916908373ffffffffffffffffffffffffffffffffffffffff1602179055508173ffffffffffffffffffffffffffffffffffffffff168173ffffffffffffffffffffffffffffffffffffffff167f8be0079c531659141344cd1fd0a4f28419497f9722a3daafe3b4186f6b6457e060405160405180910390a35050565b8173ffffffffffffffffffffffffffffffffffffffff168373ffffffffffffffffffffffffffffffffffffffff1603611bc5576040517f08c379a0000000000000000000000000000000000000000000000000000000008152600401611bbc90613b2a565b60405180910390fd5b80600560008573ffffffffffffffffffffffffffffffffffffffff1673ffffffffffffffffffffffffffffffffffffffff16815260200190815260200160002060008473ffffffffffffffffffffffffffffffffffffffff1673ffffffffffffffffffffffffffffffffffffffff16815260200190815260200160002060006101000a81548160ff0219169083151502179055508173ffffffffffffffffffffffffffffffffffffffff168373ffffffffffffffffffffffffffffffffffffffff167f17307eab39ab6107e8899845ad3d59bd9653f200f220920489ca2b5937696c3183604051611cb69190612ae3565b60405180910390a3505050565b611cce84848461175b565b611cda848484846120e9565b611d19576040517f08c379a0000000000000000000000000000000000000000000000000000000008152600401611d1090613bbc565b60405180910390fd5b50505050565b6060600b8054611d2e906130a8565b80601f0160208091040260200160405190810160405280929190818152602001828054611d5a906130a8565b8015611da75780601f10611d7c57610100808354040283529160200191611da7565b820191906000526020600020905b815481529060010190602001808311611d8a57829003601f168201915b5050505050905090565b606060006001611dc084612270565b01905060008167ffffffffffffffff811115611ddf57611dde612dfb565b5b6040519080825280601f01601f191660200182016040528015611e115781602001600182028036833780820191505090505b509050600082602001820190505b600115611e74578080600190039150507f3031323334353637383961626364656600000000000000000000000000000000600a86061a8153600a8581611e6857611e67613bdc565b5b04945060008503611e1f575b819350505050919050565b60007f01ffc9a7000000000000000000000000000000000000000000000000000000007bffffffffffffffffffffffffffffffffffffffffffffffffffffffff1916827bffffffffffffffffffffffffffffffffffffffffffffffffffffffff1916149050919050565b60008073ffffffffffffffffffffffffffffffffffffffff16611f0b83611a54565b73ffffffffffffffffffffffffffffffffffffffff1614159050919050565b611f3483836123c3565b611f4160008484846120e9565b611f80576040517f08c379a0000000000000000000000000000000000000000000000000000000008152600401611f7790613bbc565b60405180910390fd5b505050565b611f91848484846125e0565b6001811115611fd5576040517f08c379a0000000000000000000000000000000000000000000000000000000008152600401611fcc90613c7d565b60405180910390fd5b6000829050600073ffffffffffffffffffffffffffffffffffffffff168573ffffffffffffffffffffffffffffffffffffffff160361201c5761201781612706565b61205b565b8373ffffffffffffffffffffffffffffffffffffffff168573ffffffffffffffffffffffffffffffffffffffff161461205a57612059858261274f565b5b5b600073ffffffffffffffffffffffffffffffffffffffff168473ffffffffffffffffffffffffffffffffffffffff160361209d57612098816128bc565b6120dc565b8473ffffffffffffffffffffffffffffffffffffffff168473ffffffffffffffffffffffffffffffffffffffff16146120db576120da848261298d565b5b5b5050505050565b50505050565b600061210a8473ffffffffffffffffffffffffffffffffffffffff16612a0c565b15612263578373ffffffffffffffffffffffffffffffffffffffff1663150b7a026121336115e7565b8786866040518563ffffffff1660e01b81526004016121559493929190613cf2565b6020604051808303816000875af192505050801561219157506040513d601f19601f8201168201806040525081019061218e9190613d53565b60015b612213573d80600081146121c1576040519150601f19603f3d011682016040523d82523d6000602084013e6121c6565b606091505b50600081510361220b576040517f08c379a000000000000000000000000000000000000000000000000000000000815260040161220290613bbc565b60405180910390fd5b805181602001fd5b63150b7a0260e01b7bffffffffffffffffffffffffffffffffffffffffffffffffffffffff1916817bffffffffffffffffffffffffffffffffffffffffffffffffffffffff191614915050612268565b600190505b949350505050565b600080600090507a184f03e93ff9f4daa797ed6e38ed64bf6a1f01000000000000000083106122ce577a184f03e93ff9f4daa797ed6e38ed64bf6a1f01000000000000000083816122c4576122c3613bdc565b5b0492506040810190505b6d04ee2d6d415b85acef8100000000831061230b576d04ee2d6d415b85acef8100000000838161230157612300613bdc565b5b0492506020810190505b662386f26fc10000831061233a57662386f26fc1000083816123305761232f613bdc565b5b0492506010810190505b6305f5e1008310612363576305f5e100838161235957612358613bdc565b5b0492506008810190505b612710831061238857612710838161237e5761237d613bdc565b5b0492506004810190505b606483106123ab57606483816123a1576123a0613bdc565b5b0492506002810190505b600a83106123ba576001810190505b80915050919050565b600073ffffffffffffffffffffffffffffffffffffffff168273ffffffffffffffffffffffffffffffffffffffff1603612432576040517f08c379a000000000000000000000000000000000000000000000000000000000815260040161242990613dcc565b60405180910390fd5b61243b81611ee9565b1561247b576040517f08c379a000000000000000000000000000000000000000000000000000000000815260040161247290613e38565b60405180910390fd5b612489600083836001611f85565b61249281611ee9565b156124d2576040517f08c379a00000000000000000000000000000000000000000000000000000000081526004016124c990613e38565b60405180910390fd5b6001600360008473ffffffffffffffffffffffffffffffffffffffff1673ffffffffffffffffffffffffffffffffffffffff16815260200190815260200160002060008282540192505081905550816002600083815260200190815260200160002060006101000a81548173ffffffffffffffffffffffffffffffffffffffff021916908373ffffffffffffffffffffffffffffffffffffffff160217905550808273ffffffffffffffffffffffffffffffffffffffff16600073ffffffffffffffffffffffffffffffffffffffff167fddf252ad1be2c89b69c2b068fc378daa952ba7f163c4a11628f55a4df523b3ef60405160405180910390a46125dc6000838360016120e3565b5050565b600181111561270057600073ffffffffffffffffffffffffffffffffffffffff168473ffffffffffffffffffffffffffffffffffffffff16146126745780600360008673ffffffffffffffffffffffffffffffffffffffff1673ffffffffffffffffffffffffffffffffffffffff168152602001908152602001600020600082825461266c9190613e58565b925050819055505b600073ffffffffffffffffffffffffffffffffffffffff168373ffffffffffffffffffffffffffffffffffffffff16146126ff5780600360008573ffffffffffffffffffffffffffffffffffffffff1673ffffffffffffffffffffffffffffffffffffffff16815260200190815260200160002060008282546126f79190613045565b925050819055505b5b50505050565b6008805490506009600083815260200190815260200160002081905550600881908060018154018082558091505060019003906000526020600020016000909190919091505550565b6000600161275c84611087565b6127669190613e58565b905060006007600084815260200190815260200160002054905081811461284b576000600660008673ffffffffffffffffffffffffffffffffffffffff1673ffffffffffffffffffffffffffffffffffffffff168152602001908152602001600020600084815260200190815260200160002054905080600660008773ffffffffffffffffffffffffffffffffffffffff1673ffffffffffffffffffffffffffffffffffffffff168152602001908152602001600020600084815260200190815260200160002081905550816007600083815260200190815260200160002081905550505b6007600084815260200190815260200160002060009055600660008573ffffffffffffffffffffffffffffffffffffffff1673ffffffffffffffffffffffffffffffffffffffff16815260200190815260200160002060008381526020019081526020016000206000905550505050565b600060016008805490506128d09190613e58565b9050600060096000848152602001908152602001600020549050600060088381548110612900576128ff613615565b5b90600052602060002001549050806008838154811061292257612921613615565b5b90600052602060002001819055508160096000838152602001908152602001600020819055506009600085815260200190815260200160002060009055600880548061297157612970613e8c565b5b6001900381819060005260206000200160009055905550505050565b600061299883611087565b905081600660008573ffffffffffffffffffffffffffffffffffffffff1673ffffffffffffffffffffffffffffffffffffffff168152602001908152602001600020600083815260200190815260200160002081905550806007600084815260200190815260200160002081905550505050565b6000808273ffffffffffffffffffffffffffffffffffffffff163b119050919050565b6000604051905090565b600080fd5b600080fd5b60007fffffffff0000000000000000000000000000000000000000000000000000000082169050919050565b612a7881612a43565b8114612a8357600080fd5b50565b600081359050612a9581612a6f565b92915050565b600060208284031215612ab157612ab0612a39565b5b6000612abf84828501612a86565b91505092915050565b60008115159050919050565b612add81612ac8565b82525050565b6000602082019050612af86000830184612ad4565b92915050565b600081519050919050565b600082825260208201905092915050565b60005b83811015612b38578082015181840152602081019050612b1d565b60008484015250505050565b6000601f19601f8301169050919050565b6000612b6082612afe565b612b6a8185612b09565b9350612b7a818560208601612b1a565b612b8381612b44565b840191505092915050565b60006020820190508181036000830152612ba88184612b55565b905092915050565b6000819050919050565b612bc381612bb0565b8114612bce57600080fd5b50565b600081359050612be081612bba565b92915050565b600060208284031215612bfc57612bfb612a39565b5b6000612c0a84828501612bd1565b91505092915050565b600073ffffffffffffffffffffffffffffffffffffffff82169050919050565b6000612c3e82612c13565b9050919050565b612c4e81612c33565b82525050565b6000602082019050612c696000830184612c45565b92915050565b612c7881612c33565b8114612c8357600080fd5b50565b600081359050612c9581612c6f565b92915050565b60008060408385031215612cb257612cb1612a39565b5b6000612cc085828601612c86565b9250506020612cd185828601612bd1565b9150509250929050565b612ce481612bb0565b82525050565b6000602082019050612cff6000830184612cdb565b92915050565b600080600060608486031215612d1e57612d1d612a39565b5b6000612d2c86828701612c86565b9350506020612d3d86828701612c86565b9250506040612d4e86828701612bd1565b9150509250925092565b600060208284031215612d6e57612d6d612a39565b5b6000612d7c84828501612c86565b91505092915050565b612d8e81612ac8565b8114612d9957600080fd5b50565b600081359050612dab81612d85565b92915050565b60008060408385031215612dc857612dc7612a39565b5b6000612dd685828601612c86565b9250506020612de785828601612d9c565b9150509250929050565b600080fd5b600080fd5b7f4e487b7100000000000000000000000000000000000000000000000000000000600052604160045260246000fd5b612e3382612b44565b810181811067ffffffffffffffff82111715612e5257612e51612dfb565b5b80604052505050565b6000612e65612a2f565b9050612e718282612e2a565b919050565b600067ffffffffffffffff821115612e9157612e90612dfb565b5b612e9a82612b44565b9050602081019050919050565b82818337600083830152505050565b6000612ec9612ec484612e76565b612e5b565b905082815260208101848484011115612ee557612ee4612df6565b5b612ef0848285612ea7565b509392505050565b600082601f830112612f0d57612f0c612df1565b5b8135612f1d848260208601612eb6565b91505092915050565b60008060008060808587031215612f4057612f3f612a39565b5b6000612f4e87828801612c86565b9450506020612f5f87828801612c86565b9350506040612f7087828801612bd1565b925050606085013567ffffffffffffffff811115612f9157612f90612a3e565b5b612f9d87828801612ef8565b91505092959194509250565b600060208284031215612fbf57612fbe612a39565b5b6000612fcd84828501612d9c565b91505092915050565b60008060408385031215612fed57612fec612a39565b5b6000612ffb85828601612c86565b925050602061300c85828601612c86565b9150509250929050565b7f4e487b7100000000000000000000000000000000000000000000000000000000600052601160045260246000fd5b600061305082612bb0565b915061305b83612bb0565b925082820190508082111561307357613072613016565b5b92915050565b7f4e487b7100000000000000000000000000000000000000000000000000000000600052602260045260246000fd5b600060028204905060018216806130c057607f821691505b6020821081036130d3576130d2613079565b5b50919050565b7f4552433732313a20617070726f76616c20746f2063757272656e74206f776e6560008201527f7200000000000000000000000000000000000000000000000000000000000000602082015250565b6000613135602183612b09565b9150613140826130d9565b604082019050919050565b6000602082019050818103600083015261316481613128565b9050919050565b7f4552433732313a20617070726f76652063616c6c6572206973206e6f7420746f60008201527f6b656e206f776e6572206f7220617070726f76656420666f7220616c6c000000602082015250565b60006131c7603d83612b09565b91506131d28261316b565b604082019050919050565b600060208201905081810360008301526131f6816131ba565b9050919050565b7f436f6e74726163742043757272656e746c792050617573656400000000000000600082015250565b6000613233601983612b09565b915061323e826131fd565b602082019050919050565b6000602082019050818103600083015261326281613226565b9050919050565b7f50726573616c6520686173206e6f7420656e6465642079657400000000000000600082015250565b600061329f601983612b09565b91506132aa82613269565b602082019050919050565b600060208201905081810360008301526132ce81613292565b9050919050565b7f457863656564656420746865206c696d69740000000000000000000000000000600082015250565b600061330b601283612b09565b9150613316826132d5565b602082019050919050565b6000602082019050818103600083015261333a816132fe565b9050919050565b7f456e7465722073656e74206973206e6f7420656e6f7567680000000000000000600082015250565b6000613377601883612b09565b915061338282613341565b602082019050919050565b600060208201905081810360008301526133a68161336a565b9050919050565b7f4552433732313a2063616c6c6572206973206e6f7420746f6b656e206f776e6560008201527f72206f7220617070726f76656400000000000000000000000000000000000000602082015250565b6000613409602d83612b09565b9150613414826133ad565b604082019050919050565b60006020820190508181036000830152613438816133fc565b9050919050565b7f455243373231456e756d657261626c653a206f776e657220696e646578206f7560008201527f74206f6620626f756e6473000000000000000000000000000000000000000000602082015250565b600061349b602b83612b09565b91506134a68261343f565b604082019050919050565b600060208201905081810360008301526134ca8161348e565b9050919050565b600081905092915050565b50565b60006134ec6000836134d1565b91506134f7826134dc565b600082019050919050565b600061350d826134df565b9150819050919050565b7f4661696c656420746f2073656e64206574686572730000000000000000000000600082015250565b600061354d601583612b09565b915061355882613517565b602082019050919050565b6000602082019050818103600083015261357c81613540565b9050919050565b7f455243373231456e756d657261626c653a20676c6f62616c20696e646578206f60008201527f7574206f6620626f756e64730000000000000000000000000000000000000000602082015250565b60006135df602c83612b09565b91506135ea82613583565b604082019050919050565b6000602082019050818103600083015261360e816135d2565b9050919050565b7f4e487b7100000000000000000000000000000000000000000000000000000000600052603260045260246000fd5b7f50726573616c6520456e64656400000000000000000000000000000000000000600082015250565b600061367a600d83612b09565b915061368582613644565b602082019050919050565b600060208201905081810360008301526136a98161366d565b9050919050565b6000815190506136bf81612d85565b92915050565b6000602082840312156136db576136da612a39565b5b60006136e9848285016136b0565b91505092915050565b7f596f7520617265206e6f7420696e207768697465206c69737400000000000000600082015250565b6000613728601983612b09565b9150613733826136f2565b602082019050919050565b600060208201905081810360008301526137578161371b565b9050919050565b7f4552433732313a20696e76616c696420746f6b656e2049440000000000000000600082015250565b6000613794601883612b09565b915061379f8261375e565b602082019050919050565b600060208201905081810360008301526137c381613787565b9050919050565b7f4552433732313a2061646472657373207a65726f206973206e6f74206120766160008201527f6c6964206f776e65720000000000000000000000000000000000000000000000602082015250565b6000613826602983612b09565b9150613831826137ca565b604082019050919050565b6000602082019050818103600083015261385581613819565b9050919050565b600081905092915050565b600061387282612afe565b61387c818561385c565b935061388c818560208601612b1a565b80840191505092915050565b60006138a48285613867565b91506138b08284613867565b91508190509392505050565b7f4f776e61626c653a206e6577206f776e657220697320746865207a65726f206160008201527f6464726573730000000000000000000000000000000000000000000000000000602082015250565b6000613918602683612b09565b9150613923826138bc565b604082019050919050565b600060208201905081810360008301526139478161390b565b9050919050565b7f4f776e61626c653a2063616c6c6572206973206e6f7420746865206f776e6572600082015250565b6000613984602083612b09565b915061398f8261394e565b602082019050919050565b600060208201905081810360008301526139b381613977565b9050919050565b7f4552433732313a207472616e736665722066726f6d20696e636f72726563742060008201527f6f776e6572000000000000000000000000000000000000000000000000000000602082015250565b6000613a16602583612b09565b9150613a21826139ba565b604082019050919050565b60006020820190508181036000830152613a4581613a09565b9050919050565b7f4552433732313a207472616e7366657220746f20746865207a65726f2061646460008201527f7265737300000000000000000000000000000000000000000000000000000000602082015250565b6000613aa8602483612b09565b9150613ab382613a4c565b604082019050919050565b60006020820190508181036000830152613ad781613a9b565b9050919050565b7f4552433732313a20617070726f766520746f2063616c6c657200000000000000600082015250565b6000613b14601983612b09565b9150613b1f82613ade565b602082019050919050565b60006020820190508181036000830152613b4381613b07565b9050919050565b7f4552433732313a207472616e7366657220746f206e6f6e20455243373231526560008201527f63656976657220696d706c656d656e7465720000000000000000000000000000602082015250565b6000613ba6603283612b09565b9150613bb182613b4a565b604082019050919050565b60006020820190508181036000830152613bd581613b99565b9050919050565b7f4e487b7100000000000000000000000000000000000000000000000000000000600052601260045260246000fd5b7f455243373231456e756d657261626c653a20636f6e736563757469766520747260008201527f616e7366657273206e6f7420737570706f727465640000000000000000000000602082015250565b6000613c67603583612b09565b9150613c7282613c0b565b604082019050919050565b60006020820190508181036000830152613c9681613c5a565b9050919050565b600081519050919050565b600082825260208201905092915050565b6000613cc482613c9d565b613cce8185613ca8565b9350613cde818560208601612b1a565b613ce781612b44565b840191505092915050565b6000608082019050613d076000830187612c45565b613d146020830186612c45565b613d216040830185612cdb565b8181036060830152613d338184613cb9565b905095945050505050565b600081519050613d4d81612a6f565b92915050565b600060208284031215613d6957613d68612a39565b5b6000613d7784828501613d3e565b91505092915050565b7f4552433732313a206d696e7420746f20746865207a65726f2061646472657373600082015250565b6000613db6602083612b09565b9150613dc182613d80565b602082019050919050565b60006020820190508181036000830152613de581613da9565b9050919050565b7f4552433732313a20746f6b656e20616c7265616479206d696e74656400000000600082015250565b6000613e22601c83612b09565b9150613e2d82613dec565b602082019050919050565b60006020820190508181036000830152613e5181613e15565b9050919050565b6000613e6382612bb0565b9150613e6e83612bb0565b9250828203905081811115613e8657613e85613016565b5b92915050565b7f4e487b7100000000000000000000000000000000000000000000000000000000600052603160045260246000fdfea26469706673582212204865a8fb9cfe31f314621fa663fb6581f8e12dab5bfc3d180523ff58249bbb1764736f6c63430008110033",
  "linkReferences": {},
  "deployedLinkReferences": {}
}